{
  "_format": "hh-sol-artifact-1",
  "contractName": "RandomNumberGenerator",
  "sourceName": "contracts/RandomNumberGenerator.sol",
  "abi": [
    {
      "inputs": [
        {
          "internalType": "address",
          "name": "vrfCoordinatorV2",
          "type": "address"
        },
        {
          "internalType": "uint64",
          "name": "subscriptionId",
          "type": "uint64"
        },
        {
          "internalType": "bytes32",
          "name": "keyHash",
          "type": "bytes32"
        },
        {
          "internalType": "uint256",
          "name": "triggerTimestamp",
          "type": "uint256"
        },
        {
          "internalType": "uint32",
          "name": "callbackGasLimit",
          "type": "uint32"
        }
      ],
      "stateMutability": "nonpayable",
      "type": "constructor"
    },
    {
      "inputs": [
        {
          "internalType": "address",
          "name": "have",
          "type": "address"
        },
        {
          "internalType": "address",
          "name": "want",
          "type": "address"
        }
      ],
      "name": "OnlyCoordinatorCanFulfill",
      "type": "error"
    },
    {
      "anonymous": false,
      "inputs": [
        {
          "indexed": false,
          "internalType": "uint256",
          "name": "timestamp",
          "type": "uint256"
        },
        {
          "indexed": false,
          "internalType": "uint256",
          "name": "requestId",
          "type": "uint256"
        },
        {
          "indexed": false,
          "internalType": "uint256",
          "name": "randomNumber",
          "type": "uint256"
        }
      ],
      "name": "RandomNumberGenerated",
      "type": "event"
    },
    {
      "anonymous": false,
      "inputs": [
        {
          "indexed": false,
          "internalType": "uint256",
          "name": "oldTriggerTimestamp",
          "type": "uint256"
        },
        {
          "indexed": false,
          "internalType": "uint256",
          "name": "currentTriggerTimestamp",
          "type": "uint256"
        }
      ],
      "name": "TriggerTimestampChanged",
      "type": "event"
    },
    {
      "inputs": [
        {
          "internalType": "bytes",
          "name": "",
          "type": "bytes"
        }
      ],
      "name": "checkUpkeep",
      "outputs": [
        {
          "internalType": "bool",
          "name": "upkeepNeeded",
          "type": "bool"
        },
        {
          "internalType": "bytes",
          "name": "",
          "type": "bytes"
        }
      ],
      "stateMutability": "view",
      "type": "function"
    },
    {
      "inputs": [],
      "name": "getFactoryState",
      "outputs": [
        {
          "internalType": "enum RandomNumberGenerator.FactoryState",
          "name": "",
          "type": "uint8"
        }
      ],
      "stateMutability": "view",
      "type": "function"
    },
    {
      "inputs": [],
      "name": "getNumWords",
      "outputs": [
        {
          "internalType": "uint256",
          "name": "",
          "type": "uint256"
        }
      ],
      "stateMutability": "pure",
      "type": "function"
    },
    {
      "inputs": [],
      "name": "getNumberOfRequests",
      "outputs": [
        {
          "internalType": "uint256",
          "name": "",
          "type": "uint256"
        }
      ],
      "stateMutability": "view",
      "type": "function"
    },
    {
      "inputs": [
        {
          "internalType": "uint256",
          "name": "requestId",
          "type": "uint256"
        }
      ],
      "name": "getRandomNumber",
      "outputs": [
        {
          "internalType": "uint256",
          "name": "",
          "type": "uint256"
        }
      ],
      "stateMutability": "view",
      "type": "function"
    },
    {
      "inputs": [],
      "name": "getRequestConfirmations",
      "outputs": [
        {
          "internalType": "uint256",
          "name": "",
          "type": "uint256"
        }
      ],
      "stateMutability": "pure",
      "type": "function"
    },
    {
      "inputs": [
        {
          "internalType": "uint256",
          "name": "index",
          "type": "uint256"
        }
      ],
      "name": "getRequestId",
      "outputs": [
        {
          "internalType": "uint256",
          "name": "",
          "type": "uint256"
        }
      ],
      "stateMutability": "view",
      "type": "function"
    },
    {
      "inputs": [],
      "name": "getTriggerTimestamp",
      "outputs": [
        {
          "internalType": "uint256",
          "name": "",
          "type": "uint256"
        }
      ],
      "stateMutability": "view",
      "type": "function"
    },
    {
      "inputs": [
        {
          "internalType": "bytes",
          "name": "",
          "type": "bytes"
        }
      ],
      "name": "performUpkeep",
      "outputs": [],
      "stateMutability": "nonpayable",
      "type": "function"
    },
    {
      "inputs": [
        {
          "internalType": "uint256",
          "name": "requestId",
          "type": "uint256"
        },
        {
          "internalType": "uint256[]",
          "name": "randomWords",
          "type": "uint256[]"
        }
      ],
      "name": "rawFulfillRandomWords",
      "outputs": [],
      "stateMutability": "nonpayable",
      "type": "function"
    },
    {
      "inputs": [
        {
          "internalType": "uint256",
          "name": "_triggerTimestamp",
          "type": "uint256"
        }
      ],
      "name": "updateTriggerTimestamp",
      "outputs": [],
      "stateMutability": "nonpayable",
      "type": "function"
    }
  ],
  "bytecode": "0x6101406040523480156200001257600080fd5b506040516200151f3803806200151f8339818101604052810190620000389190620001d2565b848073ffffffffffffffffffffffffffffffffffffffff1660808173ffffffffffffffffffffffffffffffffffffffff1660601b81525050503373ffffffffffffffffffffffffffffffffffffffff1660a08173ffffffffffffffffffffffffffffffffffffffff1660601b815250508473ffffffffffffffffffffffffffffffffffffffff1660c08173ffffffffffffffffffffffffffffffffffffffff1660601b81525050826101008181525050816000819055508367ffffffffffffffff1660e08167ffffffffffffffff1660c01b815250506000600160006101000a81548160ff02191690836002811115620001375762000136620002c6565b5b02179055508063ffffffff166101208163ffffffff1660e01b8152505050505050506200037c565b6000815190506200017081620002fa565b92915050565b600081519050620001878162000314565b92915050565b6000815190506200019e816200032e565b92915050565b600081519050620001b58162000348565b92915050565b600081519050620001cc8162000362565b92915050565b600080600080600060a08688031215620001f157620001f0620002f5565b5b600062000201888289016200015f565b95505060206200021488828901620001bb565b9450506040620002278882890162000176565b93505060606200023a888289016200018d565b92505060806200024d88828901620001a4565b9150509295509295909350565b6000620002678262000278565b9050919050565b6000819050919050565b600073ffffffffffffffffffffffffffffffffffffffff82169050919050565b6000819050919050565b600063ffffffff82169050919050565b600067ffffffffffffffff82169050919050565b7f4e487b7100000000000000000000000000000000000000000000000000000000600052602160045260246000fd5b600080fd5b62000305816200025a565b81146200031157600080fd5b50565b6200031f816200026e565b81146200032b57600080fd5b50565b620003398162000298565b81146200034557600080fd5b50565b6200035381620002a2565b81146200035f57600080fd5b50565b6200036d81620002b2565b81146200037957600080fd5b50565b60805160601c60a05160601c60c05160601c60e05160c01c610100516101205160e01c61113d620003e260003960006103fd015260006103b9015260006103da0152600061037d015260006105b601526000818161022b015261027f015261113d6000f3fe608060405234801561001057600080fd5b50600436106100a95760003560e01c806368814af81161007157806368814af8146101405780636e04ff0d146101705780637a07de79146101a157806397388497146101bf578063b37217a4146101dd578063fb186b151461020d576100a9565b80631fe543e3146100ae57806330d335a4146100ca5780634585e33b146100e857806353a2c19a146101045780635f1b0fd814610122575b600080fd5b6100c860048036038101906100c39190610a9c565b610229565b005b6100d26102e9565b6040516100df9190610d39565b60405180910390f35b61010260048036038101906100fd91906109ac565b6102f2565b005b61010c6104c1565b6040516101199190610d39565b60405180910390f35b61012a6104d0565b6040516101379190610d39565b60405180910390f35b61015a60048036038101906101559190610a42565b6104dd565b6040516101679190610d39565b60405180910390f35b61018a600480360381019061018591906109f9565b610505565b604051610198929190610c3b565b60405180910390f35b6101a9610573565b6040516101b69190610cbe565b60405180910390f35b6101c761058a565b6040516101d49190610d39565b60405180910390f35b6101f760048036038101906101f29190610a42565b610597565b6040516102049190610d39565b60405180910390f35b61022760048036038101906102229190610a42565b6105b4565b005b7f000000000000000000000000000000000000000000000000000000000000000073ffffffffffffffffffffffffffffffffffffffff163373ffffffffffffffffffffffffffffffffffffffff16146102db57337f00000000000000000000000000000000000000000000000000000000000000006040517f1cf993f40000000000000000000000000000000000000000000000000000000081526004016102d2929190610c12565b60405180910390fd5b6102e5828261076c565b5050565b60008054905090565b600061030c60405180602001604052806000815250610505565b5090508061034f576040517f08c379a000000000000000000000000000000000000000000000000000000000815260040161034690610cd9565b60405180910390fd5b60018060006101000a81548160ff0219169083600281111561037457610373610f7f565b5b021790555060007f000000000000000000000000000000000000000000000000000000000000000073ffffffffffffffffffffffffffffffffffffffff16635d3b1d307f00000000000000000000000000000000000000000000000000000000000000007f000000000000000000000000000000000000000000000000000000000000000060037f000000000000000000000000000000000000000000000000000000000000000060016040518663ffffffff1660e01b815260040161043e959493929190610c6b565b602060405180830381600087803b15801561045857600080fd5b505af115801561046c573d6000803e3d6000fd5b505050506040513d601f19601f820116820180604052508101906104909190610a6f565b9050600281908060018154018082558091505060019003906000526020600020016000909190919091505550505050565b6000600163ffffffff16905090565b6000600361ffff16905090565b6000600282815481106104f3576104f2610fae565b5b90600052602060002001549050919050565b60006060600080600281111561051e5761051d610f7f565b5b600160009054906101000a900460ff1660028111156105405761053f610f7f565b5b14905060008054421190508080156105555750815b93508360405180602001604052806000815250935093505050915091565b6000600160009054906101000a900460ff16905090565b6000600280549050905090565b600060036000838152602001908152602001600020549050919050565b7f000000000000000000000000000000000000000000000000000000000000000073ffffffffffffffffffffffffffffffffffffffff163373ffffffffffffffffffffffffffffffffffffffff1614610642576040517f08c379a000000000000000000000000000000000000000000000000000000000815260040161063990610cf9565b60405180910390fd5b6001600281111561065657610655610f7f565b5b600160009054906101000a900460ff16600281111561067857610677610f7f565b5b14156106b9576040517f08c379a00000000000000000000000000000000000000000000000000000000081526004016106b090610d19565b60405180910390fd5b60008054905081600081905550600060028111156106da576106d9610f7f565b5b600160009054906101000a900460ff1660028111156106fc576106fb610f7f565b5b1461072d576000600160006101000a81548160ff0219169083600281111561072757610726610f7f565b5b02179055505b7f9c3becf580242b20c07f62817c7f0d6ed09ba4bcf060b0c9b7946e8d5cb93d1081600054604051610760929190610d54565b60405180910390a15050565b806000815181106107805761077f610fae565b5b602002602001015160036000848152602001908152602001600020819055506002600160006101000a81548160ff021916908360028111156107c5576107c4610f7f565b5b02179055507f86dc71b58256a2aebe2afe6d9153ce25cb709dff36adfd6807758636d89e0e4460005483600360008681526020019081526020016000205460405161081293929190610d7d565b60405180910390a15050565b600061083161082c84610dd9565b610db4565b9050808382526020820190508285602086028201111561085457610853611016565b5b60005b85811015610884578161086a8882610982565b845260208401935060208301925050600181019050610857565b5050509392505050565b60006108a161089c84610e05565b610db4565b9050828152602081018484840111156108bd576108bc61101b565b5b6108c8848285610f0c565b509392505050565b600082601f8301126108e5576108e4611011565b5b81356108f584826020860161081e565b91505092915050565b60008083601f84011261091457610913611011565b5b8235905067ffffffffffffffff8111156109315761093061100c565b5b60208301915083600182028301111561094d5761094c611016565b5b9250929050565b600082601f83011261096957610968611011565b5b813561097984826020860161088e565b91505092915050565b600081359050610991816110f0565b92915050565b6000815190506109a6816110f0565b92915050565b600080602083850312156109c3576109c2611025565b5b600083013567ffffffffffffffff8111156109e1576109e0611020565b5b6109ed858286016108fe565b92509250509250929050565b600060208284031215610a0f57610a0e611025565b5b600082013567ffffffffffffffff811115610a2d57610a2c611020565b5b610a3984828501610954565b91505092915050565b600060208284031215610a5857610a57611025565b5b6000610a6684828501610982565b91505092915050565b600060208284031215610a8557610a84611025565b5b6000610a9384828501610997565b91505092915050565b60008060408385031215610ab357610ab2611025565b5b6000610ac185828601610982565b925050602083013567ffffffffffffffff811115610ae257610ae1611020565b5b610aee858286016108d0565b9150509250929050565b610b0181610e63565b82525050565b610b1081610e75565b82525050565b610b1f81610e81565b82525050565b6000610b3082610e36565b610b3a8185610e41565b9350610b4a818560208601610f1b565b610b538161102a565b840191505092915050565b610b6781610efa565b82525050565b6000610b7a601183610e52565b9150610b858261103b565b602082019050919050565b6000610b9d600a83610e52565b9150610ba882611064565b602082019050919050565b6000610bc0603d83610e52565b9150610bcb8261108d565b604082019050919050565b610bdf81610e9e565b82525050565b610bee81610ecc565b82525050565b610bfd81610ed6565b82525050565b610c0c81610ee6565b82525050565b6000604082019050610c276000830185610af8565b610c346020830184610af8565b9392505050565b6000604082019050610c506000830185610b07565b8181036020830152610c628184610b25565b90509392505050565b600060a082019050610c806000830188610b16565b610c8d6020830187610c03565b610c9a6040830186610bd6565b610ca76060830185610bf4565b610cb46080830184610bf4565b9695505050505050565b6000602082019050610cd36000830184610b5e565b92915050565b60006020820190508181036000830152610cf281610b6d565b9050919050565b60006020820190508181036000830152610d1281610b90565b9050919050565b60006020820190508181036000830152610d3281610bb3565b9050919050565b6000602082019050610d4e6000830184610be5565b92915050565b6000604082019050610d696000830185610be5565b610d766020830184610be5565b9392505050565b6000606082019050610d926000830186610be5565b610d9f6020830185610be5565b610dac6040830184610be5565b949350505050565b6000610dbe610dcf565b9050610dca8282610f4e565b919050565b6000604051905090565b600067ffffffffffffffff821115610df457610df3610fdd565b5b602082029050602081019050919050565b600067ffffffffffffffff821115610e2057610e1f610fdd565b5b610e298261102a565b9050602081019050919050565b600081519050919050565b600082825260208201905092915050565b600082825260208201905092915050565b6000610e6e82610eac565b9050919050565b60008115159050919050565b6000819050919050565b6000819050610e99826110dc565b919050565b600061ffff82169050919050565b600073ffffffffffffffffffffffffffffffffffffffff82169050919050565b6000819050919050565b600063ffffffff82169050919050565b600067ffffffffffffffff82169050919050565b6000610f0582610e8b565b9050919050565b82818337600083830152505050565b60005b83811015610f39578082015181840152602081019050610f1e565b83811115610f48576000848401525b50505050565b610f578261102a565b810181811067ffffffffffffffff82111715610f7657610f75610fdd565b5b80604052505050565b7f4e487b7100000000000000000000000000000000000000000000000000000000600052602160045260246000fd5b7f4e487b7100000000000000000000000000000000000000000000000000000000600052603260045260246000fd5b7f4e487b7100000000000000000000000000000000000000000000000000000000600052604160045260246000fd5b600080fd5b600080fd5b600080fd5b600080fd5b600080fd5b600080fd5b6000601f19601f8301169050919050565b7f55706b656570206e6f74206e6565646564000000000000000000000000000000600082015250565b7f4e6f74204f776e65722100000000000000000000000000000000000000000000600082015250565b7f466163746f727920697320696e2067656e65726174696e672073746174652e2060008201527f5570646174652074696d657374616d70206e6f7420616c6c6f77656421000000602082015250565b600381106110ed576110ec610f7f565b5b50565b6110f981610ecc565b811461110457600080fd5b5056fea26469706673582212203b45193c25d432c64ada5a366f6059f0fc1d5802c8ceead2556840bb95455a4a64736f6c63430008070033",
  "linkReferences": {},
  "deployedLinkReferences": {}
}